:100000000A128A11EF2FFF1B0D2883137F18831705
:100010000008840A0319FF0A08007F087F398A0054
:0A0020000408840A0319FF0A820095
:1009E20047348316031394190800F22C6400800123
:1009F200840A0406031900340406F82CF00083125A
:100A020003130C1E002D83160313981C042D70086B
:100A1200831203139900080083160313141C0D2D6F
:100A2200941A112D831203131308F0007008BE00EC
:100A32008C1108008230F0000030F100710870045F
:100A4200031908000130F0020030031CF103F10227
:100A52001F2D73087204031908000A128A111B253C
:100A62000A128A110130F2020030031CF303F3026E
:100A72002A2D8316031387150716CC3093003630C0
:100A82008312031394008316031394018312031336
:100A92008C11080083120313141383160313141802
:100AA200542D141E4B2D831203131308F0007008EB
:100AB200D40014128C11141654080800F601F70120
:100AC20076087107F4007208F3000318F30AF61BA4
:100AD200F3037308F500750883120313FF0074080B
:100AE20084000A128A1103200A128A11003803199B
:100AF200080076087107F4007208F3000318F30A7D
:100B0200F61BF3037308F500750883120313FF0045
:100B1200740884000A128A1103200A128A110A1226
:100B22008A11FF240A128A110130F6070318F70A04
:100B32000030F707612D83120313A101F31FAE2DBD
:100B4200F009F109F209F309F00A0319F10A03198C
:100B5200F20A0319F30AA101A10AF71FBF2DF40932
:100B6200F509F609F709F40A0319F50A0319F60A51
:100B72000319F70A0130F8007808A1060030A50031
:100B82000030A4000030A3000030A20073087204F9
:100B9200710470040319142EA001A00AF31BDF2DA7
:100BA2000130F8000310F00DF10DF20DF30DF80B0A
:100BB200D32D0130F8007808A007CF2D0130F800BE
:100BC2000310A20DA30DA40DA50DF80BE12D7308C2
:100BD2007702031DF62D72087602031DF62D7108A9
:100BE2007502031DF62D70087402031C072E70088F
:100BF200F4027108031C710FF5027208031C720FD4
:100C0200F6027308031C730FF7022214013003105B
:100C1200F30CF20CF10CF00CFF3E031D082E013018
:100C2200A002031DDF2D21080319222EA209A30908
:100C3200A409A509A20A0319A30A0319A40A0319FC
:100C4200A50A2508F3002408F2002308F10022086F
:100C5200F00008000030FC008830FD002E308312C6
:100C62000313B6008830B7005C3083160317E00028
:100C72008830E100C630E2008830E3001D30831284
:100C82000313B8008930B900DD30BA008830BB00E8
:100C9200F330BC008830BD00083083160317E4002F
:100CA2008930E500AB30E6008830E700703083160B
:100CB20003138F040F1D5B2E003083120313A90050
:100CC2000030A8002530A7008030A6000A128A1141
:100CD200FE260A128A11831603176108F201F2072F
:100CE2006008F101F1070A128A115F250A128A11BE
:100CF200831603176508F201F2076408F101F10790
:100D02000A128A115F250A128A11F430F2000130A8
:100D1200F3000A128A112A250A128A11831603176E
:100D22006308F201F2076208F101F1070A128A115F
:100D32005F250A128A110A128A113A250A128A11A9
:100D4200831603176708F201F2076608F101F1073B
:100D52000A128A115F250A128A1183160317E80103
:100D6200513068020318C22E6808903E840083172F
:100D720080010130FB007B08E80751306802031C48
:100D8200B52EE8018A30F1008830F2000A128A1189
:100D92005F250A128A119030F1000130F2000A1226
:100DA2008A115F250A128A114630F1008930F20059
:100DB2000A128A115F250A128A110A128A11F22472
:100DC2000A128A11831203138C110A128A110D2539
:100DD2000A128A110A128A114B250A128A110A1260
:100DE2008A11FF240A128A1183160313141EEB2E92
:100DF2002F30F1008930F200A92E83120313260846
:100E0200AA002708AB002808AC002908AD0006306C
:100E12000310AA0DAB0DAC0DAD0DFF3E031D092F46
:100E22002D08F3002C08F2002B08F1002A08F0002C
:100E32000030AE001230AF007A30B0000030B100A6
:100E42002608B2002708B3002808B4002908B50014
:100E520006300310B20DB30DB40DB50DFF3E031DE8
:100E62002A2FB209B309B409B509B20A0319B30AA0
:100E72000319B40A0319B50A3208AE073308031876
:100E8200330F442F452FAF0734080318340F4A2F6E
:100E92004B2FB00735080318350AB1073108F700A0
:100EA2003008F6002F08F5002E08F4000A128A1105
:100EB2009C250A128A117108FA01FA077008F901D1
:100EC200F90701307A02003003197902031CDA2F84
:100ED200831203132608AA002708AB002808AC00D7
:100EE2002908AD0004300310AA0DAB0DAC0DAD0DF9
:100EF200FF3E031D742F2D08F3002C08F2002B086F
:100F0200F1002A08F0000030AE001230AF007A3053
:100F1200B0000030B1002608B2002708B30028084C
:100F2200B4002908B50004300310B20DB30DB40D9E
:100F3200B50DFF3E031D952FB209B309B409B509DA
:100F4200B20A0319B30A0319B40A0319B50A32081B
:100F5200AE0733080318330FAF2FB02FAF07340893
:100F62000318340FB52FB62FB00735080318350A0A
:100F7200B1073108F7003008F6002F08F5002E08F7
:100F8200F4000A128A119C250A128A117108FA01C8
:100F9200FA077008F901F90783160313181579087F
:100FA2009900181283120313981718168316031345
:100FB200981601307A0200300319790203180800EA
:100FC2008316031318117908990018128312031358
:100FD20098171816831603139816080083133E30C9
:100FE200840054300A128A11F7240A128A110A1252
:100FF2008A11F124D40083010A128A112B2E0D3496
:101002000A342D342D342D342D342D342D342D34F9
:101012002D342D342D342D342D342D3453344C3481
:101022004134563445342034313428343034583441
:101032004134413429342D342D342D342D342D3482
:101042002D342D342D342D342D342D342D342D3496
:101052002D342D340D340A3400340D340A342D3439
:101062002D342D342D342D342D342D342D342D3476
:101072002D342D342D342D3453344C3441345634E4
:1010820045342034323428343034583442344234F3
:1010920029342D342D342D342D342D342D342D344A
:1010A2002D342D342D342D342D342D342D342D3436
:1010B2000D340A3400340D340A342D342D342D34D9
:1010C2002D342D342D342D342D342D342D342D3416
:1010D2002D342D3453344C34413456344534203479
:1010E20033342834303458344334433429342D349F
:1010F2002D342D342D342D342D342D342D342D34E6
:101102002D342D342D342D342D342D340D340A3418
:1011120000340D340A3420344E3465347834743457
:1011220020346C3469346E346534203462346C3467
:1011320061346E346B34203461347234723461340D
:10114200793420347034723469346E3474340D342A
:101152000A3400340D340A3453346C346134763436
:1011620065342034493432344334203469346E34A3
:1011720069347434693461346C3469347334653479
:1011820064343A340D340A3400340D340A3457349A
:1011920061346934743469346E34673420346634AB
:1011A2006F34723420344D346134733474346534A2
:1011B20072340D340A3400340D340A34203441348C
:1011C2006434643472346534733473342034643474
:1011D20065347434653463347434653464340D3482
:1011E2000A3400340D340A34203444346134743403
:1011F200613420347234653463346934653476344E
:10120200653464343F343F340D340A3400340D34D1
:101212000A345534413452345434203449346E340F
:1012220069347434693461346C34693473346534C8
:1012320064340D340A3400340D340A342034423418
:10124200653466346F3472346534203473347434E4
:101252006134723474340D340A3400340D340A3477
:1012620044344134543441342034523445344134CA
:1012720044340D340A3400344B34653479346534E3
:101282006434203469346E3420340D340A3400342A
:04400E00F4E3FFFFD9
:00000001FF
