:100000000A128A11F02FFF1B0D2883137F18831704
:100010000008840A0319FF0A080000308A00040857
:10002000840A8207003453346C3461347634653486
:100030002034493432344334203469346E346934E2
:100040007434693461346C346934733465346434C1
:100050003A340D340A3400342F3472342F346E3471
:10006000573461346934743469346E3467342034FD
:1000700066346F34723420344D34613473347434E4
:10008000653472340D340A3400342F3472342F3412
:1000900020346134643464347234653473347334BA
:1000A00020346434653474346534633474346534B2
:1000B00064340D340A3400342F3472342F34203435
:1000C000643461347434613420347234653463349C
:1000D000693465347634653464343F343F340D34E8
:1000E0000A340034553441345234543420344934C1
:1000F0006E3469347434693461346C346934733403
:10010000653464340D340A3400342F3472342F349F
:1001100020346234653466346F347234653420348C
:10012000733474346134723474340D340A340034EA
:100130000D340A3420346E34653478347434203409
:100140006C3469346E3465340D340A3400344B3405
:100150006534793465346434203469346E34203441
:100160000D340A340034443441345434413420349E
:0E01700052344534413444340D340A340034E2
:1009B0008316031394190800D82C64008001840A5C
:1009C0000406031900340406DE2C710870040319B0
:1009D00008000130F0020030031CF103F102E52CA5
:1009E000F000831203130C1EF12C83160313981CC2
:1009F000F52C700883120313990008008316031363
:100A0000141CFE2C941A022D831203131308F000F9
:100A10007008FC008C1108008230F0000030F100FA
:100A200071087004031908000130F0020030031C43
:100A3000F103F102102D73087204031908000A1261
:100A40008A110C250A128A110130F2020030031CAF
:100A5000F303F3021B2D8316031387150716BB3010
:100A6000930036308312031394008316031394010A
:100A7000831203138C1108008312031314138316BB
:100A800003131418452D141E3C2D83120313130851
:100A9000F000700883160317E70083120313141283
:100AA0008C1114160800F601F70176087107F4009E
:100AB0007208F3000318F30AF61BF3037308F5003A
:100AC000750883120313FF00740884000A128A1148
:100AD00003200A128A1100380319080076087107EA
:100AE000F4007208F3000318F30AF61BF30373080B
:100AF000F500750883120313FF00740884000A12BE
:100B00008A1103200A128A110A128A11F0240A1289
:100B10008A110130F6070318F70A0030F707552D40
:100B200083120313A101F31FA22DF009F109F209A9
:100B3000F309F00A0319F10A0319F20A0319F30A77
:100B4000A101A10AF71FB32DF409F509F609F70968
:100B5000F40A0319F50A0319F60A0319F70A013012
:100B6000F8007808A1060030A5000030A40000308D
:100B7000A3000030A200730872047104700403190A
:100B8000082EA001A00AF31BD32D0130F80003109A
:100B9000F00DF10DF20DF30DF80BC72D0130F8003B
:100BA0007808A007C32D0130F8000310A20DA30D93
:100BB000A40DA50DF80BD52D73087702031DEA2DA2
:100BC00072087602031DEA2D71087502031DEA2DD5
:100BD00070087402031CFB2D7008F4027108031CDA
:100BE000710FF5027208031C720FF6027308031CE2
:100BF000730FF702221401300310F30CF20CF10C06
:100C0000F00CFF3E031DFC2D0130A002031DD32D6F
:100C100021080319162EA209A309A409A509A20AED
:100C20000319A30A0319A40A0319A50A2508F30046
:100C30002408F2002308F1002208F00008001A300E
:100C4000FB007B0883160317E3007330FB007B086F
:100C5000E0003330FB007B08E1004A30FB007B08FA
:100C6000E2006030FB007B08E4000130FB007B0801
:100C7000E5007030831603138F040F1D3D2E0030E6
:100C800083120313A9000030A8002530A70080308C
:100C9000A6000A128A11FF260A128A118316031768
:100CA0006408F1008030F2000A128A1153250A12FA
:100CB0008A11F430F2000130F3000A128A111B2568
:100CC0000A128A11831603176308F1008030F200BC
:100CD0000A128A1153250A128A110A128A112B2527
:100CE0000A128A11831603176508F1008030F2009A
:100CF0000A128A1153250A128A1183160317E60174
:100D0000513066020318912E6608903E84008317C6
:100D100080010130FB007B08E60751306602031CAE
:100D2000842EE6014330FB007B08E7009E30F10093
:100D30008030F2000A128A1153250A128A11831692
:100D4000031767080A128A11F0240A128A118630E2
:100D5000F1008030F2000A128A1153250A128A111A
:100D60009030F1000130F2000A128A1153250A1264
:100D70008A119E30F1008030F2000A128A11532548
:100D80000A128A110A128A11D8240A128A118312AD
:100D900003138C110A128A11FE240A128A11831677
:100DA0000317E6013230F0000030F1000A128A1118
:100DB000E5240A128A110A128A113C250A128A11A4
:100DC000831603176708FB006608903E84007B08C3
:100DD000831780000130FB007B08E60783160313AE
:100DE000141EDB2EA130F1008030F2000A128A11AD
:100DF00053250A128A119030F1000130772E8312A8
:100E000003132608AA002708AB002808AC0029080D
:100E1000AD0006300310AA0DAB0DAC0DAD0DFF3EBD
:100E2000031D0A2F2D08F3002C08F2002B08F100F7
:100E30002A08F0000030AE001230AF007A30B00067
:100E40000030B1002608B2002708B3002808B4001B
:100E50002908B50006300310B20DB30DB40DB50D61
:100E6000FF3E031D2B2FB209B309B409B509B20A1D
:100E70000319B30A0319B40A0319B50A3208AE07F5
:100E800033080318330F452F462FAF0734080318D4
:100E9000340F4B2F4C2FB00735080318350AB10714
:100EA0003108F7003008F6002F08F5002E08F4008E
:100EB0000A128A1190250A128A117108FA01FA079A
:100EC0007008F901F90701307A020030031979023C
:100ED000031CDB2F831203132608AA002708AB008C
:100EE0002808AC002908AD0004300310AA0DAB0D92
:100EF000AC0DAD0DFF3E031D752F2D08F3002C0822
:100F0000F2002B08F1002A08F0000030AE00123089
:100F1000AF007A30B0000030B1002608B2002708D8
:100F2000B3002808B4002908B50004300310B20D3E
:100F3000B30DB40DB50DFF3E031D962FB209B309D5
:100F4000B409B509B20A0319B30A0319B40A03199B
:100F5000B50A3208AE0733080318330FB02FB12F8C
:100F6000AF0734080318340FB62FB72FB007350872
:100F70000318350AB1073108F7003008F6002F08CA
:100F8000F5002E08F4000A128A1190250A128A111F
:100F90007108FA01FA077008F901F90783160313BB
:100FA0001815790899001812831203139817181648
:100FB00083160313981601307A0200300319790260
:100FC00003180800831603131811790899001812E2
:100FD0008312031398171816831603139816080024
:100FE000FC01FD018313363084004A300A128A1155
:100FF000DD2483160317E70183010A128A111F2ECD
:04400E00F4E3FFFFD9
:00000001FF
