:100000000A128A11F42FFF1B0D2883137F18831700
:100010000008840A0319FF0A08007F087F398A0054
:0A0020000408840A0319FF0A820095
:10078400831203138C1EC22B1A0808006400800114
:10079400840A0406031900340406C92B83160313C0
:1007A40011141118D32B831203138C110800831610
:1007B400031311151119DC2B831203138C11080078
:1007C400831603131419E22B11081F3903190800A7
:1007D400E62BF000831203130C1EEC2B8316031379
:1007E400981CF02B700883120313990008008230C0
:1007F400F0000030F10071087004031908000130A2
:10080400F0020030031CF103F102FD2B73087204A3
:10081400031908000A128A11F9230A128A110130F5
:10082400F2020030031CF303F302082CF8008316D1
:1008340003131418192C78088312031393008C1DC6
:10084400212C6430F1008930F2000A128A11CB2481
:1008540008008316031387150716831203138C11DC
:1008640083160313910114081D3093002830F000FF
:1008740070088312031394040800831603131418D6
:100884003F2CAA3083120313930083160313111B06
:10089400502C83120313D701D70A522C8312D70189
:1008A4008C1157080800831603131418552CBB30F9
:1008B40083120313930083160313111B662C8312F4
:1008C4000313D501D50A682C8312D5018C11550860
:1008D40008008316031314186B2CCC3083120313F3
:1008E400930083160313111B7C2C83120313D6016C
:1008F400D60A7E2C8312D6018C1156080800FC00FF
:10090400FA01FB017A087C07F90079088400831353
:100914008008031908007A087C07F9007908840024
:10092400831300080A128A1118240A128A1101304A
:10093400FA070318FB0A0030FB07842CD230F900B5
:100944008930FA00FC010A128A11C2230A128A11A0
:10095400FB000D3A0319BB2C7B08F8007C08593EB8
:1009640084007808831380000130F8007808FC07BD
:10097400A52C7C08593E8400831380017A08F20177
:10098400F2077908F101F1070A128A11CB245930D0
:100994000800F601F70176087107F4007208F30005
:1009A4000318F30AF61BF3037308F50075088312A2
:1009B4000313FF00740884000A128A1103200A1228
:1009C4008A1100380319080076087107F4007208C8
:1009D400F3000318F30AF61BF3037308F500750814
:1009E40083120313FF00740884000A128A1103207F
:1009F4000A128A110A128A11EB230A128A1101308F
:100A0400F6070318F70A0030F707CD2C83120313F7
:100A1400A101F31F1A2DF009F109F209F309F00AF3
:100A24000319F10A0319F20A0319F30AA101A10A2D
:100A3400F71F2B2DF409F509F609F709F40A031930
:100A4400F50A0319F60A0319F70A0130F8007808C1
:100A5400A1060030A5000030A4000030A30000303F
:100A6400A20073087204710470040319802DA0019C
:100A7400A00AF31B4B2D0130F8000310F00DF10D0B
:100A8400F20DF30DF80B3F2D0130F8007808A007A4
:100A94003B2D0130F8000310A20DA30DA40DA50DEC
:100AA400F80B4D2D73087702031D622D7208760230
:100AB400031D622D71087502031D622D70087402F6
:100AC400031C732D7008F4027108031C710FF502E6
:100AD4007208031C720FF6027308031C730FF702EB
:100AE400221401300310F30CF20CF10CF00CFF3E55
:100AF400031D742D0130A002031D4B2D2108031981
:100B04008E2DA209A309A409A509A20A0319A30AFF
:100B14000319A40A0319A50A2508F3002408F200FE
:100B24002308F1002208F0000800831203132608AA
:100B3400AA002708AB002808AC002908AD0006303D
:100B44000310AA0DAB0DAC0DAD0DFF3E031DA22D80
:100B54002D08F3002C08F2002B08F1002A08F000FD
:100B64000030AE001230AF007A30B0000030B10077
:100B74002608B2002708B3002808B4002908B500E5
:100B840006300310B20DB30DB40DB50DFF3E031DB9
:100B9400C32DB209B309B409B509B20A0319B30ADA
:100BA4000319B40A0319B50A3208AE073308031847
:100BB400330FDD2DDE2DAF0734080318340FE32D7A
:100BC400E42DB00735080318350AB1073108F700DA
:100BD4003008F6002F08F5002E08F4000A128A11D6
:100BE40008250A128A117108FA01FA077008F90136
:100BF400F90701307A02003003197902031C732EBD
:100C0400831203132608AA002708AB002808AC00A7
:100C14002908AD0004300310AA0DAB0DAC0DAD0DC9
:100C2400FF3E031D0D2E2D08F3002C08F2002B08A7
:100C3400F1002A08F0000030AE001230AF007A3024
:100C4400B0000030B1002608B2002708B30028081D
:100C5400B4002908B50004300310B20DB30DB40D6F
:100C6400B50DFF3E031D2E2EB209B309B409B50913
:100C7400B20A0319B30A0319B40A0319B50A3208EC
:100C8400AE0733080318330F482E492EAF07340834
:100C94000318340F4E2E4F2EB00735080318350AAB
:100CA400B1073108F7003008F6002F08F5002E08C8
:100CB400F4000A128A1108250A128A117108FA012D
:100CC400FA077008F901F907831603131815790850
:100CD4009900181283120313981718168316031316
:100CE400981601307A0200300319790203180800BB
:100CF4008316031318117908990018128312031329
:100D04009817181683160313981608003A3083129E
:100D14000313BE008930BF000030C0008830C1001A
:100D24005030C2008930C3008B30C4008930C50004
:100D34007830C6008930C7009530C8008830C900B3
:100D4400B930CA008830CB00DD30CC008830CD000B
:100D5400C330B6008930B700DE30B8008930B9003E
:100D64009E30BA008930BB00B130BC008930BD0070
:100D74006130CE008830CF002230D0008930D100DD
:100D84000130D2008930D3007030831603138F04EE
:100D94000F1DCA2E8B01003083120313A9000030EB
:100DA400A8002530A7008030A6000A128A119725D2
:100DB4000A128A11831203134508F201F207440848
:100DC400F101F1070A128A11CB240A128A11F430B4
:100DD400F2000130F3000A128A1108240A128A115F
:100DE4000A128A112B240A128A1183120313470848
:100DF400F201F2074608F101F1070A128A11CB2425
:100E04000A128A11831203133F08F201F2073E0803
:100E1400F101F1070A128A11CB240A128A110A126B
:100E24008A11E2230A128A110A128A11A0240A12D0
:100E34008A11FD007D0883120313D8004308F201D0
:100E4400F2074208F101F1070A128A11CB240A12AF
:100E54008A11831203135808F1000030F2000A12B9
:100E64008A11CB240A128A11831203134108F20156
:100E7400F2074008F101F1070A128A11CB240A1281
:100E84008A110A128A11C2230A128A11FD007D08EE
:100E940083120313D4005308F201F2075208F1013C
:100EA400F1070A128A11CB240A128A11831203133E
:100EB40054080A128A11EB230A128A11D82F8312BA
:100EC40003134908F201F2074808F101F1070A1275
:100ED4008A11CB240A128A110A128A11D0230A1207
:100EE4008A110A128A113F240A128A11003A03193C
:100EF400E52F8312031358080A128A1181240A1257
:100F04008A11E52F831203134B08F201F2074A08F2
:100F1400F101F1070A128A11CB240A128A110A126A
:100F24008A11D0230A128A110A128A1155240A122C
:100F34008A11003A0319E52F8312031358080A1281
:100F44008A1181240A128A11E52F831203134D0892
:100F5400F201F2074C08F101F1070A128A11CB24BD
:100F64000A128A110A128A11D0230A128A110A1249
:100F74008A116B240A128A11003A0319E52F83128D
:100F8400031358080A128A1181240A128A11E52FC0
:100F9400831203134F08F201F2074E08F101F1071F
:100FA4000A128A11CB240A128A11E52F8312031321
:100FB4005408313A0319612F033A0319842F013A73
:100FC4000319A72FCA2F831203138C110A128A1133
:100FD400D9230A128A11831203135108F201F2076A
:100FE4005008FD2EED018313553084006D300A1234
:100FF4008A11C82383010A128A11882E0D340A34F7
:1010040045346E34743465347234203479346F3436
:10101400753472342034633468346F34693463341F
:10102400653420340D340A34203431342E345334AE
:101034006C346134763465342034313428344134AA
:101044006434643472346534733473343A3430340D
:101054007834303431340D340A3432342E34533449
:101064006C34613476346534203432342834413479
:101074006434643472346534733473343A343034DD
:1010840078343034323429340D340A3433342E3441
:1010940053346C3461347634653420343334283436
:1010A40041346434643472346534733473343A349C
:1010B40030347834303433340D340A3400344E341C
:1010C4006F3420346D34653473347334613467346D
:1010D40065342034773469346C346C3420346234AD
:1010E40065342034733465346E347434203473348A
:1010F40069346E346334653420346E346F34203490
:1011040073346C3461347634653420346E346F3423
:10111400203465346E347434653472346534643424
:101124000D340A340034533465346E346434693411
:101134006E346734203474346F34203453346C3454
:1011440061347634653420343134203428344134E5
:101154006434643472346534733473342034303416
:1011640078344134413429340D340A34003453344E
:1011740065346E34643469346E34673420347434C2
:101184006F34203453346C34613476346534203411
:101194003234203428344134643464347234653451
:1011A4007334733420343034783442344234293440
:1011B4000D340A340034533465346E346434693481
:1011C4006E346734203474346F34203453346C34C4
:1011D4006134763465342034333420342834413453
:1011E4006434643472346534733473342034303486
:1011F40078344334433429340D340A3400345934B4
:101204006F34753420346834613476346534203472
:1012140065346E3474346534723465346434203423
:10122400633468346F3469346334653420346E3421
:1012340075346D346234653472340D340A340034D8
:1012440043346C346F34733469346E34673420340B
:1012540043346F346D346D3475346E3469346334AF
:101264006134743469346F346E340D340A340034A8
:10127400743461346B3469346E34673420346934C3
:101284006E342034743468346534203474346534F2
:101294007834743420340D340A34003459346F34BF
:1012A40075342034683461347634653420346534DC
:1012B4006E34743465347234653464343A340D34C1
:1012C4000A34003469346E347434653472347234DC
:1012D400753470347434203472346F347534743427
:1012E40069346E3465340D340A340034493432348C
:1012F4004334203469346E34693474346934613469
:101304006C3469347334653464343A340D340A34D7
:1013140000345534413452345434203449346E3416
:1013240069347434693461346C34693473346534C5
:1013340064340D340A34003469346E342034773420
:101344007234693474346534203472346F347534CF
:10135400743469346E3465340D340A3400346934B9
:101364006E3420347234653461346434203472341D
:101374006F347534743469346E3465340D340A341E
:1013840000346134643464347234653473347334D3
:101394002034733465346E3474340D340A340034B8
:1013A4004B346534793465346434203469346E34B0
:1013B40020340D340A3400346434613474346134B8
:1013C4002034733465346E3474340D340A34003488
:04400E00F4E3FFFFD9
:00000001FF
