:100000000A128A11F42FFF1B0D2883137F18831700
:100010000008840A0319FF0A08007F087F398A0054
:0A0020000408840A0319FF0A820095
:1006FC00831203138C1E7E2B1A08080064008001E1
:10070C00840A0406031900340406852B831603138C
:10071C00111411188F2B831203138C1108008316DC
:10072C00031311151119982B831203138C11080044
:10073C008316031314199E2B11081F390319080073
:10074C00A22BF000831203130C1EA82B8316031389
:10075C00981CAC2B7008831203139900080082308C
:10076C00F0000030F100710870040319080001302A
:10077C00F0020030031CF103F102B92B7308720470
:10078C00031908000A128A11B5230A128A110130C2
:10079C00F2020030031CF303F302C42BF80083169F
:1007AC0003131418D52B78088312031393008C1D94
:1007BC00DD2BD030F1008930F2000A128A11872427
:1007CC0008008316031387150716831203138C1165
:1007DC0083160313910114081D3093002830F00088
:1007EC00700883120313940408008316031314185F
:1007FC00FB2BAA3083120313930083160313111BD4
:10080C000C2C83120313D501D50A0E2C8312D5019F
:10081C008C1155080800831603131418112CBB30C7
:10082C0083120313930083160313111B222C8312C0
:10083C000313D301D30A242C8312D3018C11530834
:10084C000800831603131418272CCC3083120313BF
:10085C00930083160313111B382C83120313D4013A
:10086C00D40A3A2C8312D4018C1154080800FC00D1
:10087C00FA01FB017A087C07F900790884008313DC
:10088C008008031908007A087C07F90079088400AD
:10089C00831300080A128A11D4230A128A11013018
:1008AC00FA070318FB0A0030FB07402C0030F90054
:1008BC008A30FA00FC010A128A117E230A128A116C
:1008CC00FB000D3A0319772C7B08F8007C08573E87
:1008DC0084007808831380000130F8007808FC0746
:1008EC00612C7C08573E8400831380017A08F20146
:1008FC00F2077908F101F1070A128A11872457309F
:10090C000800F601F70176087107F4007208F3008D
:10091C000318F30AF61BF3037308F500750883122A
:10092C000313FF00740884000A128A1103200A12B0
:10093C008A1100380319080076087107F400720850
:10094C00F3000318F30AF61BF3037308F50075089C
:10095C0083120313FF00740884000A128A11032007
:10096C000A128A110A128A11A7230A128A1101305B
:10097C00F6070318F70A0030F707892C83120313C4
:10098C00A101F31FD62CF009F109F209F309F00AC1
:10099C000319F10A0319F20A0319F30AA101A10AB6
:1009AC00F71FE72CF409F509F609F709F40A0319FE
:1009BC00F50A0319F60A0319F70A0130F80078084A
:1009CC00A1060030A5000030A4000030A3000030C8
:1009DC00A200730872047104700403193C2DA00169
:1009EC00A00AF31B072D0130F8000310F00DF10DD8
:1009FC00F20DF30DF80BFB2C0130F8007808A00772
:100A0C00F72C0130F8000310A20DA30DA40DA50DB9
:100A1C00F80B092D73087702031D1E2D7208760240
:100A2C00031D1E2D71087502031D1E2D7008740206
:100A3C00031C2F2D7008F4027108031C710FF502B2
:100A4C007208031C720FF6027308031C730FF70273
:100A5C00221401300310F30CF20CF10CF00CFF3EDD
:100A6C00031D302D0130A002031D072D2108031991
:100A7C004A2DA209A309A409A509A20A0319A30ACC
:100A8C000319A40A0319A50A2508F3002408F20087
:100A9C002308F1002208F000080083120313260833
:100AAC00AA002708AB002808AC002908AD000630C6
:100ABC000310AA0DAB0DAC0DAD0DFF3E031D5E2D4D
:100ACC002D08F3002C08F2002B08F1002A08F00086
:100ADC000030AE001230AF007A30B0000030B10000
:100AEC002608B2002708B3002808B4002908B5006E
:100AFC0006300310B20DB30DB40DB50DFF3E031D42
:100B0C007F2DB209B309B409B509B20A0319B30AA6
:100B1C000319B40A0319B50A3208AE0733080318CF
:100B2C00330F992D9A2DAF0734080318340F9F2DCE
:100B3C00A02DB00735080318350AB1073108F700A6
:100B4C003008F6002F08F5002E08F4000A128A115E
:100B5C00C4240A128A117108FA01FA077008F90103
:100B6C00F90701307A02003003197902031C2F2E89
:100B7C00831203132608AA002708AB002808AC0030
:100B8C002908AD0004300310AA0DAB0DAC0DAD0D52
:100B9C00FF3E031DC92D2D08F3002C08F2002B0875
:100BAC00F1002A08F0000030AE001230AF007A30AD
:100BBC00B0000030B1002608B2002708B3002808A6
:100BCC00B4002908B50004300310B20DB30DB40DF8
:100BDC00B50DFF3E031DEA2DB209B309B409B509E1
:100BEC00B20A0319B30A0319B40A0319B50A320875
:100BFC00AE0733080318330F042E052EAF07340845
:100C0C000318340F0A2E0B2EB00735080318350ABB
:100C1C00B1073108F7003008F6002F08F5002E0850
:100C2C00F4000A128A11C4240A128A117108FA01FA
:100C3C00FA077008F901F9078316031318157908D8
:100C4C00990018128312031398171816831603139E
:100C5C00981601307A020030031979020318080043
:100C6C0083160313181179089900181283120313B1
:100C7C0098171816831603139816080097308312CA
:100C8C000313BA008830BB007A30BC008930BD0039
:100C9C000030BE008830BF00BC30C0008930C100BD
:100CAC00A730C2008930C3009230C4008930C5001F
:100CBC00C930C6008830C700EF30C8008830C90082
:100CCC001530CA008930CB00E130B6008930B7004E
:100CDC00F230B8008930B9006130CC008830CD00DA
:100CEC005F30CE008930CF003B30D0008930D1004E
:100CFC007030831603138F040F1D822E8B0100306E
:100D0C0083120313A9000030A8002530A7008030FF
:100D1C00A6000A128A1153250A128A118312031390
:100D2C003B08F201F2073A08F101F1070A128A11A5
:100D3C0087240A128A11831203134308F201F20763
:100D4C004208F101F1070A128A1187240A128A114A
:100D5C00F430F2000130F3000A128A11C4230A1293
:100D6C008A110A128A11E7230A128A1183120313B9
:100D7C004508F201F2074408F101F1070A128A1141
:100D8C0087240A128A11831203133D08F201F20719
:100D9C003C08F101F1070A128A1187240A128A1100
:100DAC000A128A119E230A128A110A128A115C24D1
:100DBC000A128A11FD007D0883120313D600410824
:100DCC00F201F2074008F101F1070A128A11872497
:100DDC000A128A11831203135608F1000030F20034
:100DEC000A128A1187240A128A11831203133F08EC
:100DFC00F201F2073E08F101F1070A128A11872469
:100E0C000A128A110A128A117E230A128A11FD0013
:100E1C007D0883120313D2005108F201F207500827
:100E2C00F101F1070A128A1187240A128A1183121E
:100E3C00031352080A128A11A7230A128A11DF2FF0
:100E4C00831203134708F201F2074608F101F10778
:100E5C000A128A1187240A128A110A128A118C2307
:100E6C000A128A110A128A11FB230A128A11003AF9
:100E7C000319EC2F83120313560884008313000804
:100E8C000A128A11D4230A128A11831203135608E8
:100E9C000A128A113D240A128A1108300A128A1188
:100EAC00D4230A128A110A128A1195230A128A1162
:100EBC00EC2F831203134908F201F2074808F101E1
:100ECC00F1070A128A1187240A128A110A128A114E
:100EDC008C230A128A110A128A1111240A128A11FD
:100EEC00003A0319EC2F8312031356088400831362
:100EFC0000080A128A11D4230A128A1183120313CE
:100F0C0056080A128A113D240A128A1108300A1254
:100F1C008A11D4230A128A110A128A1195230A12F1
:100F2C008A11EC2F831203134B08F201F2074A08C3
:100F3C00F101F1070A128A1187240A128A110A1286
:100F4C008A118C230A128A110A128A1127240A1276
:100F5C008A11003A0319EC2F8312031356088400EC
:100F6C00831300080A128A11D4230A128A118312DD
:100F7C00031356080A128A113D240A128A110830EA
:100F8C000A128A11D4230A128A110A128A11952381
:100F9C000A128A11EC2F831203134D08F201F20787
:100FAC004C08F101F1070A128A1187240A128A11DE
:100FBC00EC2F831203135208313A0319262F033AEC
:100FCC0003195F2F013A0319982FD12F83120313A2
:100FDC008C114F08F201F2074E08C22EEB0183135D
:100FEC00533084006B300A128A11842383010A1255
:100FFC008A11442E0D340A3445346E3474346534FD
:10100C007234203479346F34753472342034633450
:10101C0068346F3469346334653420340D340A34E5
:10102C00203431342E3453346C346134763465349A
:10103C0020343134283441346434643472346534AB
:10104C00733473343A3430347834413441340D349D
:10105C000A3432342E3453346C346134763465347F
:10106C00203432342834413464346434723465347A
:10107C00733473343A34303478344234423429344F
:10108C000D340A3433342E3453346C3461347634A6
:10109C006534203433342834413464346434723449
:1010AC006534733473343A343034783443344334E1
:1010BC000D340A3400340D340A344E346F34203479
:1010CC006D3465347334733461346734653420346F
:1010DC00773469346C346C342034623465342034A5
:1010EC00733465346E3474342034733469346E3430
:1010FC006334653420346E346F34203473346C3480
:10110C0061347634653420346E346F342034653475
:10111C006E34743465347234653464340D340A348A
:10112C0000340D340A342D342D342D342D342D341B
:10113C002D342D342D342D342D342D342D342D349B
:10114C002D342D344D3441345334543445345234CD
:10115C0020344434453456344934433445342D34E6
:10116C002D342D342D342D342D342D342D342D346B
:10117C002D342D342D342D342D342D342D342D345B
:10118C000D340A3400340D340A34533465346E345F
:10119C00643469346E346734203474346F342034DE
:1011AC0053346C3461347634653420343134203427
:1011BC002834413464346434723465347334733495
:1011CC002034303478344134413429340D340A34E9
:1011DC0000340D340A34533465346E346434693459
:1011EC006E346734203474346F34203453346C349C
:1011FC00613476346534203432342034283441342C
:10120C00643464347234653473347334203430345D
:10121C0078344234423429340D340A3400340D34D9
:10122C000A34533465346E34643469346E34673440
:10123C00203474346F34203453346C346134763449
:10124C0065342034333420342834413464346434E9
:10125C00723465347334733420343034783443341A
:10126C00433429340D340A3400340D340A345934DF
:10127C006F347534203468346134763465342034FA
:10128C0065346E34743465347234653464342034AB
:10129C00633468346F3469346334653420346E34A9
:1012AC0075346D346234653472343A340D340A3426
:1012BC0000340D340A3443346C346F347334693471
:1012CC006E346734203443346F346D346D3475347C
:1012DC006E34693463346134743469346F346E340D
:1012EC0021340D340A3400340D340A34543461344E
:1012FC006B3469346E346734203469346E34203482
:10130C00743468346534203474346534783474340B
:10131C0020340D340A3400340D340A344934323458
:10132C004334203469346E34693474346934613430
:10133C006C3469347334653464343A340D340A349F
:10134C0000340D340A34553441345234543420347E
:10135C0049346E3469347434693461346C346934AE
:10136C007334653464340D340A34003459346F34B6
:10137C007534203468346134763465342034653403
:10138C006E34743465347234653464343A340D34E8
:10139C000A3400340D340A34443461347434613406
:1013AC00203472346F347534743469346E3465346B
:1013BC000D340A3400340D340A344134643464344A
:1013CC0072346534733473342034733465346E344E
:1013DC0074340D340A3400340D340A34443461341A
:1013EC00743461342034733465346E3474340D3495
:1013FC000A3400344B346534793465346434203425
:0C140C0069346E3420340D340A3400348E
:04400E00F4E3FFFFD9
:00000001FF
